:100000000C9463000C948B000C948B000C940603EE
:100010000C9406030C9406030C948B000C948B0038
:100020000C948B000C948B000C948B000C948B0024
:100030000C948B000C948B000C948B000C948B0014
:100040000C9464020C948B000C94D4020C94AE02B9
:100050000C948B000C948B000C948B000C948B00F4
:100060000C948B000C948B0000000008000201002F
:100070000003040700000000000000000000000072
:1000800023002600290000000000240027002A0089
:1000900000000000250028002B00040404040404D0
:1000A0000404020202020202030303030303010227
:1000B00004081020408001020408102001020408F6
:1000C0001020CA030D0611241FBECFEFD8E0DEBFFB
:1000D000CDBF11E0A0E0B1E0E8E7FCE002C0059090
:1000E0000D92AE38B107D9F722E0AEE8B1E001C019
:1000F0001D92A739B207E1F710E0C2E6D0E004C0D4
:100100002197FE010E942906C136D107C9F70E9436
:10011000B3040C942F060C940000AF92BF92CF92C0
:10012000DF92EF92FF920F931F93CF93DF936C01B7
:100130007B018B01040F151FEB015E01AE18BF0898
:10014000C017D10759F06991D601ED91FC9101904A
:10015000F081E02DC6010995892B79F7C501DF9162
:10016000CF911F910F91FF90EF90DF90CF90BF90B4
:10017000AF900895FC01538D448D252F30E0842FDE
:1001800090E0821B930B541710F0CF9608950197BF
:100190000895FC01918D828D981761F0A28DAE0FAC
:1001A000BF2FB11D5D968C91928D9F5F9F73928F33
:1001B00090E008958FEF9FEF0895FC01918D828D5F
:1001C000981731F0828DE80FF11D858D90E008952C
:1001D0008FEF9FEF0895FC01918D228D892F90E084
:1001E000805C9F4F821B91098F73992708958BED37
:1001F00091E00E94EB0021E0892B09F420E0822F9E
:10020000089580E090E0892B29F00E94F700811189
:100210000C9400000895FC01A48DA80FB92FB11D06
:10022000A35ABF4F2C91848D90E001968F7399272C
:10023000848FA689B7892C93A089B1898C9183700A
:1002400080648C93938D848D981306C00288F38903
:10025000E02D80818F7D80830895EF92FF920F9330
:100260001F93CF93DF93EC0181E0888F9B8D8C8D62
:1002700098131AC0E889F989808185FF15C09FB756
:10028000F894EE89FF896083E889F9898081837019
:10029000806480839FBF81E090E0DF91CF911F91C8
:1002A0000F91FF90EF900895F62E0B8D10E00F5FE9
:1002B0001F4F0F731127E02E8C8D8E110CC00FB6BF
:1002C00007FCFACFE889F989808185FFF5CFCE0157
:1002D0000E940B01F1CFEB8DEC0FFD2FF11DE35AC6
:1002E000FF4FF0829FB7F8940B8FEA89FB898081DA
:1002F0008062CFCFCF93DF93EC01888D8823B9F054
:10030000AA89BB89E889F9898C9185FD03C0808120
:1003100086FD0DC00FB607FCF7CF8C9185FFF2CF9D
:10032000808185FFEDCFCE010E940B01E9CFDF91E7
:10033000CF9108952091D0013091D101281739072C
:1003400071F49091CE018091CF01981741F0E09126
:10035000CE01F0E0E257FE4F808190E008958FEFEC
:100360009FEF08950895EF92FF920F931F93CF93FD
:10037000DF93DC015C96ED90FC905D97E114F10455
:1003800079F481E090E013969C938E93129790E01D
:1003900080E0DF91CF911F910F91FF90EF90089532
:1003A0005196ED91FC91529750968C915097982FC1
:1003B00090950FB75E962C915E97122F127021FDCB
:1003C0006095F8942081112319F1282B2083E701EF
:1003D0002197F1F728E0462F50E0308160FF1AC0E6
:1003E000382B3083E7012197F1F7BA0175956795AE
:1003F000215089F7112381F08081892380830FBFE9
:100400005C968D919C910197F1F781E090E0C1CFCE
:100410002923DCCF3923E5CF9081892BEFCF2091A1
:10042000D0013091D1012817390761F48091CF01B3
:100430002091CE0190E0805C9F4F821B91098F73C9
:100440009927089590E080E008952091D00130919F
:10045000D10128173907B9F49091CE018091CF01CD
:10046000981789F0E091CE01F0E0E257FE4F8081CD
:100470002091CE0130E02F5F3F4F2F733327209321
:10048000CE0190E008958FEF9FEF089590E080E017
:100490000895FC0101900020E9F73197AF01481B56
:1004A000590BBC018BED91E00C948D00CF93DF9341
:1004B0000E944902EC0184E291E00E9449028C0F03
:1004C0009D1FDF91CF9108951F920F920FB60F924B
:1004D00011242F933F938F939F93AF93BF9380915A
:1004E000D7019091D801A091D901B091DA01309152
:1004F000D60123E0230F2D3758F50196A11DB11D1C
:100500002093D6018093D7019093D801A093D9016D
:10051000B093DA018091D2019091D301A091D401DE
:10052000B091D5010196A11DB11D8093D201909388
:10053000D301A093D401B093D501BF91AF919F9106
:100540008F913F912F910F900FBE0F901F90189594
:1005500026E8230F0296A11DB11DD2CF1F920F9244
:100560000FB60F9211242F933F934F935F936F9386
:100570007F938F939F93AF93BF93EF93FF938BEDF5
:1005800091E00E940B01FF91EF91BF91AF919F917C
:100590008F917F916F915F914F913F912F910F902C
:1005A0000FBE0F901F9018951F920F920FB60F92CB
:1005B00011242F938F939F93EF93FF93E091EB017F
:1005C000F091EC018081E091F101F091F20182FD66
:1005D0001BC090818091F4018F5F8F732091F50192
:1005E000821741F0E091F401F0E0E552FE4F958F63
:1005F0008093F401FF91EF919F918F912F910F9034
:100600000FBE0F901F9018958081F4CF1F920F920C
:100610000FB60F9211242F933F934F935F936F93D5
:100620007F938F939F93AF93BF93EF93FF93E0914B
:10063000D001F091D101309749F0A685B785858525
:10064000968D91FF14C09C918923A1F4FF91EF91A5
:10065000BF91AF919F918F917F916F915F914F91DA
:100660003F912F910F900FBE0F901F9018959C9166
:10067000892361F7A389B4899C9185898095892311
:100680008C93868997890197F1F7608D718DA68586
:10069000B785558538E020E0CB010197F1F7822F2F
:1006A00090E095958795282F4C91452309F0206877
:1006B000315091F7868D81FD20958091CF0190E09A
:1006C00001968F7399273091CE01381799F0A09138
:1006D000CF01B0E0A257BE4F2C938093CF01828D03
:1006E000938D0197F1F7A389B4898C919589892B12
:1006F0008C93ACCF868D8160868FF1CF90E0FC012A
:10070000E859FF4F2491FC01E255FF4F3491FC0161
:10071000E656FF4FE491EE23C9F0222339F023304F
:1007200001F1A8F4213019F1223029F1F0E0EE0FA7
:10073000FF1FE057FF4FA591B4918FB7F894EC914C
:10074000611126C030953E233C938FBF089527301A
:10075000A9F02830C9F0243049F7809180008F7DBE
:1007600003C0809180008F7780938000DFCF84B5B5
:100770008F7784BDDBCF84B58F7DFBCF8091B000B8
:100780008F778093B000D2CF8091B0008F7DF9CF6A
:100790003E2BDACF0F931F93CF93DF931092DE019E
:1007A0001092DD0188EE93E0A0E0B0E08093DF01DD
:1007B0009093E001A093E101B093E20124E031E0E5
:1007C0003093DC012093DB0125EC30E03093E8012D
:1007D0002093E70124EC30E03093EA012093E90113
:1007E00020EC30E03093EC012093EB0121EC30E081
:1007F0003093EE012093ED0122EC30E03093F001D4
:100800002093EF0126EC30E03093F2012093F101C8
:100810001092F4011092F5011092F6011092F70176
:1008200010927B0210927A0280937C0290937D0258
:10083000A0937E02B0937F0286E191E090937902CB
:100840008093780210928F0210928E021092910281
:1008500010929002109293021092920210929502BE
:1008600010929402609196026E7F6D7F6093960263
:100870006695617081E0682789E00E947E0347EBFE
:1008800050E0FA01649183EA90E0FC012491222374
:1008900099F030E0220F331FF901EA57FF4FA5917D
:1008A000B491F901E057FF4F259134912FB7F89497
:1008B0003C91632B6C932FBFFA01449140938802C3
:1008C000FC018491E82FF0E0EE0FFF1FE057FF4F8F
:1008D0008591949190938A028093890208EB10E0AD
:1008E000F8012491C4EAD0E0FE0184918823C9F084
:1008F00090E0880F991FFC01EA57FF4FA591B49132
:10090000FC01E057FF4F459154913FB7F8949C91FB
:10091000822F809598239C93FA019081892380836C
:100920003FBF8091960281FD04C061E08AE00E9491
:100930007E038AE080938402F8010491009385028B
:10094000FE01C491EC2FF0E0EE0FFF1FE458FF4FC3
:10095000859194919093870280938602DF91CF9145
:100960001F910F910895789484B5826084BD84B5F9
:10097000816084BD85B5826085BD85B5816085BD9A
:1009800080916E00816080936E0010928100809152
:1009900081008260809381008091810081608093DA
:1009A0008100809180008160809380008091B100FF
:1009B00084608093B1008091B00081608093B0002A
:1009C00080917A00846080937A0080917A008260BE
:1009D00080937A0080917A00816080937A00809180
:1009E0007A00806880937A001092C100E091EB0158
:1009F000F091EC0182E08083E091E701F091E80161
:100A00001082E091E901F091EA018FEC808310926D
:100A1000F301E091EF01F091F00186E08083E09135
:100A2000ED01F091EE01808180618083E091ED0124
:100A3000F091EE01808188608083E091ED01F0917A
:100A4000EE01808180688083E091ED01F091EE01FC
:100A500080818F7D80831092930210929202109277
:100A600091021092900210928F0210928E028DE9E4
:100A700091E0909395028093940290918402963134
:100A800008F047C02DEB30E030938F0220938E02A8
:100A90002BE931E030939102209390022CE231E077
:100AA00030939302209392022091680084E0983062
:100AB00048F031E09E3008F430E081E001C0880F5A
:100AC0003A95EAF7822B809368002DE630E0983063
:100AD00050F02BE630E09E3030F02CE630E09631DE
:100AE00010F030E020E030938C0220938B02292F0D
:100AF00030E0983008F084C081E001C0880F9A95FA
:100B0000EAF780938D02809194029091950201976B
:100B1000F1F78091920290919302892B49F1E09133
:100B2000D001F091D10182E0E837F80709F1309760
:100B300039F0A389B4899C918589809589238C9308
:100B4000809196028E7F809396021092CF01109230
:100B5000CE0188E792E09093D1018093D001E0919B
:100B60008B02F0918C02808190918D02892B808381
:100B700087E291E00E94560283E491E00E945602CF
:100B800081E691E00E94560200E010E08BED91E0DA
:100B90000E94EB00892BD9F08BED91E00E94C900F7
:100BA000C82F8D30A1F08A3091F0682F88E792E04D
:100BB0000E94B3018FE791E00E9449026C2F8BEDF8
:100BC00091E00E942D0184E291E00E94490288E7B1
:100BD00092E00E940F02892B49F088E792E00E9480
:100BE0002502682F8BED91E00E942D010115110562
:100BF00069F20E94F700882349F20E940000C6CFE4
:100C00009E3040F42850310981E001C0880F2A95B8
:100C1000EAF777CF2E503109F7CF86E191E0909334
:100C20007902809378028091D0019091D101885708
:100C3000924071F4E0918B02F0918C02908180914E
:100C40008D028095892380831092D1011092D0016A
:100C50000895EE0FFF1F0590F491E02D099410E028
:100C6000C2E6D0E004C0FE010E9429062196C336E8
:080C7000D107C9F7F894FFCF8A
:100C7800000000002D018D00BA007A01EB00C900C8
:100C8800DD0000000000B3018D004602B2010F0232
:100C980025029A010D0A003D3D3D20444945552055
:100CA8004B4849454E2045535033322D5333203D50
:100CB8003D3D00303A20426174204C454420313299
:100CC800207C20313A20546174204C454420313234
:100CD80000323A20426174204C4544203133207C54
:100CE80020333A20546174204C4544203133004469
:0E0CF8006120677569206B792074753A2000C1
:00000001FF
